{
  "_format": "hh-sol-artifact-1",
  "contractName": "Layer2Scaling",
  "sourceName": "contracts/Layer2Scaling.sol",
  "abi": [
    {
      "inputs": [],
      "stateMutability": "nonpayable",
      "type": "constructor"
    },
    {
      "anonymous": false,
      "inputs": [
        {
          "indexed": true,
          "internalType": "address",
          "name": "previousAdmin",
          "type": "address"
        },
        {
          "indexed": true,
          "internalType": "address",
          "name": "newAdmin",
          "type": "address"
        }
      ],
      "name": "AdminChanged",
      "type": "event"
    },
    {
      "anonymous": false,
      "inputs": [
        {
          "indexed": true,
          "internalType": "uint256",
          "name": "batchId",
          "type": "uint256"
        }
      ],
      "name": "BatchFinalized",
      "type": "event"
    },
    {
      "anonymous": false,
      "inputs": [
        {
          "indexed": true,
          "internalType": "uint256",
          "name": "batchId",
          "type": "uint256"
        },
        {
          "indexed": false,
          "internalType": "bytes32",
          "name": "transactionsRoot",
          "type": "bytes32"
        }
      ],
      "name": "BatchSubmitted",
      "type": "event"
    },
    {
      "anonymous": false,
      "inputs": [
        {
          "indexed": true,
          "internalType": "uint256",
          "name": "batchId",
          "type": "uint256"
        }
      ],
      "name": "BatchVerified",
      "type": "event"
    },
    {
      "anonymous": false,
      "inputs": [
        {
          "indexed": true,
          "internalType": "address",
          "name": "user",
          "type": "address"
        },
        {
          "indexed": false,
          "internalType": "uint256",
          "name": "penalty",
          "type": "uint256"
        }
      ],
      "name": "FraudPenaltyApplied",
      "type": "event"
    },
    {
      "anonymous": false,
      "inputs": [
        {
          "indexed": true,
          "internalType": "uint256",
          "name": "batchId",
          "type": "uint256"
        },
        {
          "indexed": false,
          "internalType": "bytes32",
          "name": "fraudProof",
          "type": "bytes32"
        }
      ],
      "name": "FraudReported",
      "type": "event"
    },
    {
      "anonymous": false,
      "inputs": [
        {
          "indexed": true,
          "internalType": "address",
          "name": "user",
          "type": "address"
        },
        {
          "indexed": false,
          "internalType": "uint256",
          "name": "amount",
          "type": "uint256"
        }
      ],
      "name": "FundsDeposited",
      "type": "event"
    },
    {
      "anonymous": false,
      "inputs": [
        {
          "indexed": true,
          "internalType": "address",
          "name": "user",
          "type": "address"
        },
        {
          "indexed": false,
          "internalType": "uint256",
          "name": "amount",
          "type": "uint256"
        }
      ],
      "name": "FundsWithdrawn",
      "type": "event"
    },
    {
      "anonymous": false,
      "inputs": [
        {
          "indexed": true,
          "internalType": "address",
          "name": "operator",
          "type": "address"
        }
      ],
      "name": "OperatorAdded",
      "type": "event"
    },
    {
      "anonymous": false,
      "inputs": [
        {
          "indexed": true,
          "internalType": "address",
          "name": "operator",
          "type": "address"
        }
      ],
      "name": "OperatorRemoved",
      "type": "event"
    },
    {
      "anonymous": false,
      "inputs": [
        {
          "indexed": true,
          "internalType": "address",
          "name": "sender",
          "type": "address"
        },
        {
          "indexed": true,
          "internalType": "address",
          "name": "recipient",
          "type": "address"
        },
        {
          "indexed": false,
          "internalType": "uint256",
          "name": "amount",
          "type": "uint256"
        }
      ],
      "name": "TransactionExecuted",
      "type": "event"
    },
    {
      "inputs": [
        {
          "internalType": "address",
          "name": "operator",
          "type": "address"
        }
      ],
      "name": "addOperator",
      "outputs": [],
      "stateMutability": "nonpayable",
      "type": "function"
    },
    {
      "inputs": [],
      "name": "admin",
      "outputs": [
        {
          "internalType": "address",
          "name": "",
          "type": "address"
        }
      ],
      "stateMutability": "view",
      "type": "function"
    },
    {
      "inputs": [
        {
          "internalType": "address",
          "name": "",
          "type": "address"
        }
      ],
      "name": "balances",
      "outputs": [
        {
          "internalType": "uint256",
          "name": "",
          "type": "uint256"
        }
      ],
      "stateMutability": "view",
      "type": "function"
    },
    {
      "inputs": [
        {
          "internalType": "uint256",
          "name": "",
          "type": "uint256"
        }
      ],
      "name": "batchMerkleRoots",
      "outputs": [
        {
          "internalType": "bytes32",
          "name": "",
          "type": "bytes32"
        }
      ],
      "stateMutability": "view",
      "type": "function"
    },
    {
      "inputs": [
        {
          "internalType": "uint256",
          "name": "",
          "type": "uint256"
        }
      ],
      "name": "batches",
      "outputs": [
        {
          "internalType": "uint256",
          "name": "batchId",
          "type": "uint256"
        },
        {
          "internalType": "bytes32",
          "name": "transactionsRoot",
          "type": "bytes32"
        },
        {
          "internalType": "uint256",
          "name": "timestamp",
          "type": "uint256"
        },
        {
          "internalType": "bool",
          "name": "verified",
          "type": "bool"
        },
        {
          "internalType": "bool",
          "name": "finalized",
          "type": "bool"
        }
      ],
      "stateMutability": "view",
      "type": "function"
    },
    {
      "inputs": [
        {
          "internalType": "address",
          "name": "newAdmin",
          "type": "address"
        }
      ],
      "name": "changeAdmin",
      "outputs": [],
      "stateMutability": "nonpayable",
      "type": "function"
    },
    {
      "inputs": [],
      "name": "depositFunds",
      "outputs": [],
      "stateMutability": "payable",
      "type": "function"
    },
    {
      "inputs": [
        {
          "internalType": "address[]",
          "name": "_recipients",
          "type": "address[]"
        },
        {
          "internalType": "uint256[]",
          "name": "_amounts",
          "type": "uint256[]"
        }
      ],
      "name": "executeL2BatchTransaction",
      "outputs": [],
      "stateMutability": "nonpayable",
      "type": "function"
    },
    {
      "inputs": [
        {
          "internalType": "address",
          "name": "_recipient",
          "type": "address"
        },
        {
          "internalType": "uint256",
          "name": "_amount",
          "type": "uint256"
        }
      ],
      "name": "executeL2Transaction",
      "outputs": [],
      "stateMutability": "nonpayable",
      "type": "function"
    },
    {
      "inputs": [
        {
          "internalType": "uint256",
          "name": "_batchId",
          "type": "uint256"
        }
      ],
      "name": "finalizeBatch",
      "outputs": [],
      "stateMutability": "nonpayable",
      "type": "function"
    },
    {
      "inputs": [
        {
          "internalType": "uint256",
          "name": "",
          "type": "uint256"
        }
      ],
      "name": "isBatchFraudulent",
      "outputs": [
        {
          "internalType": "bool",
          "name": "",
          "type": "bool"
        }
      ],
      "stateMutability": "view",
      "type": "function"
    },
    {
      "inputs": [
        {
          "internalType": "address",
          "name": "",
          "type": "address"
        }
      ],
      "name": "isOperator",
      "outputs": [
        {
          "internalType": "bool",
          "name": "",
          "type": "bool"
        }
      ],
      "stateMutability": "view",
      "type": "function"
    },
    {
      "inputs": [],
      "name": "nextBatchId",
      "outputs": [
        {
          "internalType": "uint256",
          "name": "",
          "type": "uint256"
        }
      ],
      "stateMutability": "view",
      "type": "function"
    },
    {
      "inputs": [
        {
          "internalType": "address",
          "name": "operator",
          "type": "address"
        }
      ],
      "name": "removeOperator",
      "outputs": [],
      "stateMutability": "nonpayable",
      "type": "function"
    },
    {
      "inputs": [
        {
          "internalType": "uint256",
          "name": "batchId",
          "type": "uint256"
        },
        {
          "internalType": "bytes32",
          "name": "fraudProofHash",
          "type": "bytes32"
        },
        {
          "internalType": "bytes32[]",
          "name": "merkleProof",
          "type": "bytes32[]"
        }
      ],
      "name": "reportFraud",
      "outputs": [],
      "stateMutability": "nonpayable",
      "type": "function"
    },
    {
      "inputs": [],
      "name": "slashingPenalty",
      "outputs": [
        {
          "internalType": "uint256",
          "name": "",
          "type": "uint256"
        }
      ],
      "stateMutability": "view",
      "type": "function"
    },
    {
      "inputs": [
        {
          "internalType": "bytes32[]",
          "name": "_transactionsRoots",
          "type": "bytes32[]"
        }
      ],
      "name": "submitBatch",
      "outputs": [],
      "stateMutability": "nonpayable",
      "type": "function"
    },
    {
      "inputs": [
        {
          "internalType": "uint256",
          "name": "_batchId",
          "type": "uint256"
        }
      ],
      "name": "verifyBatch",
      "outputs": [],
      "stateMutability": "nonpayable",
      "type": "function"
    },
    {
      "inputs": [
        {
          "internalType": "uint256",
          "name": "_amount",
          "type": "uint256"
        }
      ],
      "name": "withdrawFunds",
      "outputs": [],
      "stateMutability": "nonpayable",
      "type": "function"
    },
    {
      "stateMutability": "payable",
      "type": "receive"
    }
  ],
  "bytecode": "0x608060405266b1a2bc2ec5000060035534801561001b57600080fd5b5033600460006101000a81548173ffffffffffffffffffffffffffffffffffffffff021916908373ffffffffffffffffffffffffffffffffffffffff160217905550600180819055506001600560003373ffffffffffffffffffffffffffffffffffffffff1673ffffffffffffffffffffffffffffffffffffffff16815260200190815260200160002060006101000a81548160ff021916908315150217905550612bc8806100cb6000396000f3fe6080604052600436106101185760003560e01c806389f1ea64116100a0578063b32c4d8d11610064578063b32c4d8d14610404578063dfe3a3ae14610445578063e2c41dbc1461046e578063e33491a714610478578063f851a440146104a15761016d565b806389f1ea64146103355780638f283970146103605780639870d7fe14610389578063a9f1afba146103b2578063ac8a584a146103db5761016d565b806327e235e3116100e757806327e235e31461023e578063602a693a1461027b5780636d70f7ae146102a45780636ed180d1146102e15780638462a7f81461030a5761016d565b8063075ff5281461017257806310334c461461019b578063150a527e146101d8578063155dd5ee146102155761016d565b3661016d573373ffffffffffffffffffffffffffffffffffffffff167f543ba50a5eec5e6178218e364b1d0f396157b3c8fa278522c2cb7fd99407d474346040516101639190611a6f565b60405180910390a2005b600080fd5b34801561017e57600080fd5b5061019960048036038101906101949190611d44565b6104cc565b005b3480156101a757600080fd5b506101c260048036038101906101bd9190611dbc565b610779565b6040516101cf9190611e04565b60405180910390f35b3480156101e457600080fd5b506101ff60048036038101906101fa9190611dbc565b610799565b60405161020c9190611e38565b60405180910390f35b34801561022157600080fd5b5061023c60048036038101906102379190611dbc565b6107b1565b005b34801561024a57600080fd5b5061026560048036038101906102609190611e53565b610986565b6040516102729190611a6f565b60405180910390f35b34801561028757600080fd5b506102a2600480360381019061029d9190611f6f565b61099e565b005b3480156102b057600080fd5b506102cb60048036038101906102c69190611e53565b610c47565b6040516102d89190611e04565b60405180910390f35b3480156102ed57600080fd5b5061030860048036038101906103039190612013565b610c67565b005b34801561031657600080fd5b5061031f610dd6565b60405161032c9190611a6f565b60405180910390f35b34801561034157600080fd5b5061034a610ddc565b6040516103579190611a6f565b60405180910390f35b34801561036c57600080fd5b5061038760048036038101906103829190611e53565b610de2565b005b34801561039557600080fd5b506103b060048036038101906103ab9190611e53565b610fa7565b005b3480156103be57600080fd5b506103d960048036038101906103d49190612087565b611162565b005b3480156103e757600080fd5b5061040260048036038101906103fd9190611e53565b6112f9565b005b34801561041057600080fd5b5061042b60048036038101906104269190611dbc565b611543565b60405161043c9594939291906120c7565b60405180910390f35b34801561045157600080fd5b5061046c60048036038101906104679190611dbc565b611593565b005b610476611711565b005b34801561048457600080fd5b5061049f600480360381019061049a9190611dbc565b6117fa565b005b3480156104ad57600080fd5b506104b661197a565b6040516104c39190612129565b60405180910390f35b8051825114610510576040517f08c379a0000000000000000000000000000000000000000000000000000000008152600401610507906121a1565b60405180910390fd5b6000805b8251811015610558578281815181106105305761052f6121c1565b5b602002602001015182610543919061221f565b9150808061055090612253565b915050610514565b5080600260003373ffffffffffffffffffffffffffffffffffffffff1673ffffffffffffffffffffffffffffffffffffffff1681526020019081526020016000205410156105db576040517f08c379a00000000000000000000000000000000000000000000000000000000081526004016105d2906122e7565b60405180910390fd5b80600260003373ffffffffffffffffffffffffffffffffffffffff1673ffffffffffffffffffffffffffffffffffffffff168152602001908152602001600020600082825461062a9190612307565b9250508190555060005b8351811015610773578281815181106106505761064f6121c1565b5b60200260200101516002600086848151811061066f5761066e6121c1565b5b602002602001015173ffffffffffffffffffffffffffffffffffffffff1673ffffffffffffffffffffffffffffffffffffffff16815260200190815260200160002060008282546106c0919061221f565b925050819055508381815181106106da576106d96121c1565b5b602002602001015173ffffffffffffffffffffffffffffffffffffffff163373ffffffffffffffffffffffffffffffffffffffff167f508f3afa87f72dce865a2321107666b28ac822c23a8c0555fbeb3424cf3de563858481518110610743576107426121c1565b5b60200260200101516040516107589190611a6f565b60405180910390a3808061076b90612253565b915050610634565b50505050565b60076020528060005260406000206000915054906101000a900460ff1681565b60066020528060005260406000206000915090505481565b6000600260003373ffffffffffffffffffffffffffffffffffffffff1673ffffffffffffffffffffffffffffffffffffffff16815260200190815260200160002054905081811015610838576040517f08c379a000000000000000000000000000000000000000000000000000000000815260040161082f90612387565b60405180910390fd5b81816108449190612307565b600260003373ffffffffffffffffffffffffffffffffffffffff1673ffffffffffffffffffffffffffffffffffffffff1681526020019081526020016000208190555060003373ffffffffffffffffffffffffffffffffffffffff16836040516108ad906123d8565b60006040518083038185875af1925050503d80600081146108ea576040519150601f19603f3d011682016040523d82523d6000602084013e6108ef565b606091505b5050905080610933576040517f08c379a000000000000000000000000000000000000000000000000000000000815260040161092a90612439565b60405180910390fd5b3373ffffffffffffffffffffffffffffffffffffffff167feaff4b37086828766ad3268786972c0cd24259d4c87a80f9d3963a3c3d999b0d846040516109799190611a6f565b60405180910390a2505050565b60026020528060005260406000206000915090505481565b600560003373ffffffffffffffffffffffffffffffffffffffff1673ffffffffffffffffffffffffffffffffffffffff16815260200190815260200160002060009054906101000a900460ff1680610a435750600460009054906101000a900473ffffffffffffffffffffffffffffffffffffffff1673ffffffffffffffffffffffffffffffffffffffff163373ffffffffffffffffffffffffffffffffffffffff16145b610a82576040517f08c379a0000000000000000000000000000000000000000000000000000000008152600401610a79906124cb565b60405180910390fd5b6000815111610ac6576040517f08c379a0000000000000000000000000000000000000000000000000000000008152600401610abd90612537565b60405180910390fd5b60005b8151811015610c43576040518060a001604052806001548152602001838381518110610af857610af76121c1565b5b6020026020010151815260200142815260200160001515815260200160001515815250600080600154815260200190815260200160002060008201518160000155602082015181600101556040820151816002015560608201518160030160006101000a81548160ff02191690831515021790555060808201518160030160016101000a81548160ff021916908315150217905550905050818181518110610ba357610ba26121c1565b5b6020026020010151600660006001548152602001908152602001600020819055506001547f54756ef60c2314d7eba772fa6c7ccb036cf55b8e9d95da41a50ec4cf28b3c736838381518110610bfb57610bfa6121c1565b5b6020026020010151604051610c109190611e38565b60405180910390a260016000815480929190610c2b90612253565b91905055508080610c3b90612253565b915050610ac9565b5050565b60056020528060005260406000206000915054906101000a900460ff1681565b6007600085815260200190815260200160002060009054906101000a900460ff1615610cc8576040517f08c379a0000000000000000000000000000000000000000000000000000000008152600401610cbf906125c9565b60405180910390fd5b600060066000868152602001908152602001600020549050610d2c84848480806020026020016040519081016040528093929190818152602001838360200280828437600081840152601f19601f82011690508083019250505050505050836119a0565b610d6b576040517f08c379a0000000000000000000000000000000000000000000000000000000008152600401610d6290612635565b60405180910390fd5b60016007600087815260200190815260200160002060006101000a81548160ff021916908315150217905550847fbc3c0e7347af80bfe43f887074fc7f1cbf950493435ef5d3c94362c76b2d2e1985604051610dc79190611e38565b60405180910390a25050505050565b60015481565b60035481565b600460009054906101000a900473ffffffffffffffffffffffffffffffffffffffff1673ffffffffffffffffffffffffffffffffffffffff163373ffffffffffffffffffffffffffffffffffffffff1614610e72576040517f08c379a0000000000000000000000000000000000000000000000000000000008152600401610e69906126c7565b60405180910390fd5b600073ffffffffffffffffffffffffffffffffffffffff168173ffffffffffffffffffffffffffffffffffffffff1603610ee1576040517f08c379a0000000000000000000000000000000000000000000000000000000008152600401610ed890612733565b60405180910390fd5b6000600460009054906101000a900473ffffffffffffffffffffffffffffffffffffffff16905081600460006101000a81548173ffffffffffffffffffffffffffffffffffffffff021916908373ffffffffffffffffffffffffffffffffffffffff1602179055508173ffffffffffffffffffffffffffffffffffffffff168173ffffffffffffffffffffffffffffffffffffffff167f7e644d79422f17c01e4894b5f4f588d331ebfa28653d42ae832dc59e38c9798f60405160405180910390a35050565b600460009054906101000a900473ffffffffffffffffffffffffffffffffffffffff1673ffffffffffffffffffffffffffffffffffffffff163373ffffffffffffffffffffffffffffffffffffffff1614611037576040517f08c379a000000000000000000000000000000000000000000000000000000000815260040161102e906126c7565b60405180910390fd5b600560008273ffffffffffffffffffffffffffffffffffffffff1673ffffffffffffffffffffffffffffffffffffffff16815260200190815260200160002060009054906101000a900460ff16156110c4576040517f08c379a00000000000000000000000000000000000000000000000000000000081526004016110bb9061279f565b60405180910390fd5b6001600560008373ffffffffffffffffffffffffffffffffffffffff1673ffffffffffffffffffffffffffffffffffffffff16815260200190815260200160002060006101000a81548160ff0219169083151502179055508073ffffffffffffffffffffffffffffffffffffffff167fac6fa858e9350a46cec16539926e0fde25b7629f84b5a72bffaae4df888ae86d60405160405180910390a250565b80600260003373ffffffffffffffffffffffffffffffffffffffff1673ffffffffffffffffffffffffffffffffffffffff1681526020019081526020016000205410156111e4576040517f08c379a00000000000000000000000000000000000000000000000000000000081526004016111db906122e7565b60405180910390fd5b80600260003373ffffffffffffffffffffffffffffffffffffffff1673ffffffffffffffffffffffffffffffffffffffff16815260200190815260200160002060008282546112339190612307565b9250508190555080600260008473ffffffffffffffffffffffffffffffffffffffff1673ffffffffffffffffffffffffffffffffffffffff1681526020019081526020016000206000828254611289919061221f565b925050819055508173ffffffffffffffffffffffffffffffffffffffff163373ffffffffffffffffffffffffffffffffffffffff167f508f3afa87f72dce865a2321107666b28ac822c23a8c0555fbeb3424cf3de563836040516112ed9190611a6f565b60405180910390a35050565b600460009054906101000a900473ffffffffffffffffffffffffffffffffffffffff1673ffffffffffffffffffffffffffffffffffffffff163373ffffffffffffffffffffffffffffffffffffffff1614611389576040517f08c379a0000000000000000000000000000000000000000000000000000000008152600401611380906126c7565b60405180910390fd5b600460009054906101000a900473ffffffffffffffffffffffffffffffffffffffff1673ffffffffffffffffffffffffffffffffffffffff168173ffffffffffffffffffffffffffffffffffffffff1603611419576040517f08c379a00000000000000000000000000000000000000000000000000000000081526004016114109061280b565b60405180910390fd5b600560008273ffffffffffffffffffffffffffffffffffffffff1673ffffffffffffffffffffffffffffffffffffffff16815260200190815260200160002060009054906101000a900460ff166114a5576040517f08c379a000000000000000000000000000000000000000000000000000000000815260040161149c90612877565b60405180910390fd5b6000600560008373ffffffffffffffffffffffffffffffffffffffff1673ffffffffffffffffffffffffffffffffffffffff16815260200190815260200160002060006101000a81548160ff0219169083151502179055508073ffffffffffffffffffffffffffffffffffffffff167f80c0b871b97b595b16a7741c1b06fed0c6f6f558639f18ccbce50724325dc40d60405160405180910390a250565b60006020528060005260406000206000915090508060000154908060010154908060020154908060030160009054906101000a900460ff16908060030160019054906101000a900460ff16905085565b80600080600083815260200190815260200160002060000154036115ec576040517f08c379a00000000000000000000000000000000000000000000000000000000081526004016115e3906128e3565b60405180910390fd5b60008083815260200190815260200160002060030160019054906101000a900460ff161561164f576040517f08c379a00000000000000000000000000000000000000000000000000000000081526004016116469061294f565b60405180910390fd5b60008083815260200190815260200160002060030160009054906101000a900460ff16156116b2576040517f08c379a00000000000000000000000000000000000000000000000000000000081526004016116a9906129bb565b60405180910390fd5b600160008084815260200190815260200160002060030160006101000a81548160ff021916908315150217905550817f1ee066b0cc077ae247f731c0ad7cb81d140e8062773445294e6b74944ad455e360405160405180910390a25050565b60003411611754576040517f08c379a000000000000000000000000000000000000000000000000000000000815260040161174b90612a4d565b60405180910390fd5b34600260003373ffffffffffffffffffffffffffffffffffffffff1673ffffffffffffffffffffffffffffffffffffffff16815260200190815260200160002060008282546117a3919061221f565b925050819055503373ffffffffffffffffffffffffffffffffffffffff167f543ba50a5eec5e6178218e364b1d0f396157b3c8fa278522c2cb7fd99407d474346040516117f09190611a6f565b60405180910390a2565b8060008060008381526020019081526020016000206000015403611853576040517f08c379a000000000000000000000000000000000000000000000000000000000815260040161184a906128e3565b60405180910390fd5b60008083815260200190815260200160002060030160019054906101000a900460ff16156118b6576040517f08c379a00000000000000000000000000000000000000000000000000000000081526004016118ad90612ab9565b60405180910390fd5b62093a80600080848152602001908152602001600020600201546118da919061221f565b421161191b576040517f08c379a000000000000000000000000000000000000000000000000000000000815260040161191290612b25565b60405180910390fd5b600160008084815260200190815260200160002060030160016101000a81548160ff021916908315150217905550817f5cff112f1cb588779b4e6aae6baf0d738747fcf132f0ff202adcec605f9cabdf60405160405180910390a25050565b600460009054906101000a900473ffffffffffffffffffffffffffffffffffffffff1681565b60008084905060005b8451811015611a485760008582815181106119c7576119c66121c1565b5b60200260200101519050808311611a085782816040516020016119eb929190612b66565b604051602081830303815290604052805190602001209250611a34565b8083604051602001611a1b929190612b66565b6040516020818303038152906040528051906020012092505b508080611a4090612253565b9150506119a9565b508281149150509392505050565b6000819050919050565b611a6981611a56565b82525050565b6000602082019050611a846000830184611a60565b92915050565b6000604051905090565b600080fd5b600080fd5b600080fd5b6000601f19601f8301169050919050565b7f4e487b7100000000000000000000000000000000000000000000000000000000600052604160045260246000fd5b611aec82611aa3565b810181811067ffffffffffffffff82111715611b0b57611b0a611ab4565b5b80604052505050565b6000611b1e611a8a565b9050611b2a8282611ae3565b919050565b600067ffffffffffffffff821115611b4a57611b49611ab4565b5b602082029050602081019050919050565b600080fd5b600073ffffffffffffffffffffffffffffffffffffffff82169050919050565b6000611b8b82611b60565b9050919050565b611b9b81611b80565b8114611ba657600080fd5b50565b600081359050611bb881611b92565b92915050565b6000611bd1611bcc84611b2f565b611b14565b90508083825260208201905060208402830185811115611bf457611bf3611b5b565b5b835b81811015611c1d5780611c098882611ba9565b845260208401935050602081019050611bf6565b5050509392505050565b600082601f830112611c3c57611c3b611a9e565b5b8135611c4c848260208601611bbe565b91505092915050565b600067ffffffffffffffff821115611c7057611c6f611ab4565b5b602082029050602081019050919050565b611c8a81611a56565b8114611c9557600080fd5b50565b600081359050611ca781611c81565b92915050565b6000611cc0611cbb84611c55565b611b14565b90508083825260208201905060208402830185811115611ce357611ce2611b5b565b5b835b81811015611d0c5780611cf88882611c98565b845260208401935050602081019050611ce5565b5050509392505050565b600082601f830112611d2b57611d2a611a9e565b5b8135611d3b848260208601611cad565b91505092915050565b60008060408385031215611d5b57611d5a611a94565b5b600083013567ffffffffffffffff811115611d7957611d78611a99565b5b611d8585828601611c27565b925050602083013567ffffffffffffffff811115611da657611da5611a99565b5b611db285828601611d16565b9150509250929050565b600060208284031215611dd257611dd1611a94565b5b6000611de084828501611c98565b91505092915050565b60008115159050919050565b611dfe81611de9565b82525050565b6000602082019050611e196000830184611df5565b92915050565b6000819050919050565b611e3281611e1f565b82525050565b6000602082019050611e4d6000830184611e29565b92915050565b600060208284031215611e6957611e68611a94565b5b6000611e7784828501611ba9565b91505092915050565b600067ffffffffffffffff821115611e9b57611e9a611ab4565b5b602082029050602081019050919050565b611eb581611e1f565b8114611ec057600080fd5b50565b600081359050611ed281611eac565b92915050565b6000611eeb611ee684611e80565b611b14565b90508083825260208201905060208402830185811115611f0e57611f0d611b5b565b5b835b81811015611f375780611f238882611ec3565b845260208401935050602081019050611f10565b5050509392505050565b600082601f830112611f5657611f55611a9e565b5b8135611f66848260208601611ed8565b91505092915050565b600060208284031215611f8557611f84611a94565b5b600082013567ffffffffffffffff811115611fa357611fa2611a99565b5b611faf84828501611f41565b91505092915050565b600080fd5b60008083601f840112611fd357611fd2611a9e565b5b8235905067ffffffffffffffff811115611ff057611fef611fb8565b5b60208301915083602082028301111561200c5761200b611b5b565b5b9250929050565b6000806000806060858703121561202d5761202c611a94565b5b600061203b87828801611c98565b945050602061204c87828801611ec3565b935050604085013567ffffffffffffffff81111561206d5761206c611a99565b5b61207987828801611fbd565b925092505092959194509250565b6000806040838503121561209e5761209d611a94565b5b60006120ac85828601611ba9565b92505060206120bd85828601611c98565b9150509250929050565b600060a0820190506120dc6000830188611a60565b6120e96020830187611e29565b6120f66040830186611a60565b6121036060830185611df5565b6121106080830184611df5565b9695505050505050565b61212381611b80565b82525050565b600060208201905061213e600083018461211a565b92915050565b600082825260208201905092915050565b7f4d69736d61746368656420617272617973000000000000000000000000000000600082015250565b600061218b601183612144565b915061219682612155565b602082019050919050565b600060208201905081810360008301526121ba8161217e565b9050919050565b7f4e487b7100000000000000000000000000000000000000000000000000000000600052603260045260246000fd5b7f4e487b7100000000000000000000000000000000000000000000000000000000600052601160045260246000fd5b600061222a82611a56565b915061223583611a56565b925082820190508082111561224d5761224c6121f0565b5b92915050565b600061225e82611a56565b91507fffffffffffffffffffffffffffffffffffffffffffffffffffffffffffffffff82036122905761228f6121f0565b5b600182019050919050565b7f496e73756666696369656e74204c6179657220322062616c616e636500000000600082015250565b60006122d1601c83612144565b91506122dc8261229b565b602082019050919050565b60006020820190508181036000830152612300816122c4565b9050919050565b600061231282611a56565b915061231d83611a56565b9250828203905081811115612335576123346121f0565b5b92915050565b7f496e73756666696369656e742062616c616e6365000000000000000000000000600082015250565b6000612371601483612144565b915061237c8261233b565b602082019050919050565b600060208201905081810360008301526123a081612364565b9050919050565b600081905092915050565b50565b60006123c26000836123a7565b91506123cd826123b2565b600082019050919050565b60006123e3826123b5565b9150819050919050565b7f5472616e73666572206661696c65640000000000000000000000000000000000600082015250565b6000612423600f83612144565b915061242e826123ed565b602082019050919050565b6000602082019050818103600083015261245281612416565b9050919050565b7f4f6e6c79206f70657261746f72732063616e2063616c6c20746869732066756e60008201527f6374696f6e000000000000000000000000000000000000000000000000000000602082015250565b60006124b5602583612144565b91506124c082612459565b604082019050919050565b600060208201905081810360008301526124e4816124a8565b9050919050565b7f4261746368206d75737420636f6e7461696e207472616e73616374696f6e7300600082015250565b6000612521601f83612144565b915061252c826124eb565b602082019050919050565b6000602082019050818103600083015261255081612514565b9050919050565b7f426174636820616c7265616479206d61726b6564206173206672617564756c6560008201527f6e74000000000000000000000000000000000000000000000000000000000000602082015250565b60006125b3602283612144565b91506125be82612557565b604082019050919050565b600060208201905081810360008301526125e2816125a6565b9050919050565b7f496e76616c69642066726175642070726f6f6600000000000000000000000000600082015250565b600061261f601383612144565b915061262a826125e9565b602082019050919050565b6000602082019050818103600083015261264e81612612565b9050919050565b7f4f6e6c792061646d696e2063616e2063616c6c20746869732066756e6374696f60008201527f6e00000000000000000000000000000000000000000000000000000000000000602082015250565b60006126b1602183612144565b91506126bc82612655565b604082019050919050565b600060208201905081810360008301526126e0816126a4565b9050919050565b7f4e65772061646d696e2063616e6e6f74206265207a65726f2061646472657373600082015250565b600061271d602083612144565b9150612728826126e7565b602082019050919050565b6000602082019050818103600083015261274c81612710565b9050919050565b7f416c726561647920616e206f70657261746f7200000000000000000000000000600082015250565b6000612789601383612144565b915061279482612753565b602082019050919050565b600060208201905081810360008301526127b88161277c565b9050919050565b7f43616e6e6f742072656d6f76652061646d696e206173206f70657261746f7200600082015250565b60006127f5601f83612144565b9150612800826127bf565b602082019050919050565b60006020820190508181036000830152612824816127e8565b9050919050565b7f4e6f7420616e206f70657261746f720000000000000000000000000000000000600082015250565b6000612861600f83612144565b915061286c8261282b565b602082019050919050565b6000602082019050818103600083015261289081612854565b9050919050565b7f426174636820646f6573206e6f74206578697374000000000000000000000000600082015250565b60006128cd601483612144565b91506128d882612897565b602082019050919050565b600060208201905081810360008301526128fc816128c0565b9050919050565b7f42617463682069732066696e616c697a65640000000000000000000000000000600082015250565b6000612939601283612144565b915061294482612903565b602082019050919050565b600060208201905081810360008301526129688161292c565b9050919050565b7f426174636820616c726561647920766572696669656400000000000000000000600082015250565b60006129a5601683612144565b91506129b08261296f565b602082019050919050565b600060208201905081810360008301526129d481612998565b9050919050565b7f4465706f736974206d7573742062652067726561746572207468616e207a657260008201527f6f00000000000000000000000000000000000000000000000000000000000000602082015250565b6000612a37602183612144565b9150612a42826129db565b604082019050919050565b60006020820190508181036000830152612a6681612a2a565b9050919050565b7f426174636820616c72656164792066696e616c697a6564000000000000000000600082015250565b6000612aa3601783612144565b9150612aae82612a6d565b602082019050919050565b60006020820190508181036000830152612ad281612a96565b9050919050565b7f4368616c6c656e676520706572696f64206e6f74206f76657200000000000000600082015250565b6000612b0f601983612144565b9150612b1a82612ad9565b602082019050919050565b60006020820190508181036000830152612b3e81612b02565b9050919050565b6000819050919050565b612b60612b5b82611e1f565b612b45565b82525050565b6000612b728285612b4f565b602082019150612b828284612b4f565b602082019150819050939250505056fea26469706673582212205380effdc8d4c038990cded4e4ebe2bca3037e8204244c4519dc44efb59fe81a64736f6c63430008140033",
  "linkReferences": {},
  "deployedLinkReferences": {}
}