{
  "_format": "hh-sol-artifact-1",
  "contractName": "Layer2Scaling",
  "sourceName": "contracts/Layer2Scaling.sol",
  "abi": [
    {
      "inputs": [],
      "stateMutability": "nonpayable",
      "type": "constructor"
    },
    {
      "anonymous": false,
      "inputs": [
        {
          "indexed": true,
          "internalType": "address",
          "name": "previousAdmin",
          "type": "address"
        },
        {
          "indexed": true,
          "internalType": "address",
          "name": "newAdmin",
          "type": "address"
        }
      ],
      "name": "AdminChanged",
      "type": "event"
    },
    {
      "anonymous": false,
      "inputs": [
        {
          "indexed": true,
          "internalType": "uint256",
          "name": "batchId",
          "type": "uint256"
        }
      ],
      "name": "BatchFinalized",
      "type": "event"
    },
    {
      "anonymous": false,
      "inputs": [
        {
          "indexed": true,
          "internalType": "uint256",
          "name": "batchId",
          "type": "uint256"
        },
        {
          "indexed": false,
          "internalType": "bytes32",
          "name": "transactionsRoot",
          "type": "bytes32"
        }
      ],
      "name": "BatchSubmitted",
      "type": "event"
    },
    {
      "anonymous": false,
      "inputs": [
        {
          "indexed": true,
          "internalType": "uint256",
          "name": "batchId",
          "type": "uint256"
        }
      ],
      "name": "BatchVerified",
      "type": "event"
    },
    {
      "anonymous": false,
      "inputs": [
        {
          "indexed": true,
          "internalType": "address",
          "name": "user",
          "type": "address"
        },
        {
          "indexed": false,
          "internalType": "uint256",
          "name": "penalty",
          "type": "uint256"
        }
      ],
      "name": "FraudPenaltyApplied",
      "type": "event"
    },
    {
      "anonymous": false,
      "inputs": [
        {
          "indexed": true,
          "internalType": "uint256",
          "name": "batchId",
          "type": "uint256"
        },
        {
          "indexed": false,
          "internalType": "bytes32",
          "name": "fraudProof",
          "type": "bytes32"
        }
      ],
      "name": "FraudReported",
      "type": "event"
    },
    {
      "anonymous": false,
      "inputs": [
        {
          "indexed": true,
          "internalType": "address",
          "name": "user",
          "type": "address"
        },
        {
          "indexed": false,
          "internalType": "uint256",
          "name": "amount",
          "type": "uint256"
        }
      ],
      "name": "FundsDeposited",
      "type": "event"
    },
    {
      "anonymous": false,
      "inputs": [
        {
          "indexed": true,
          "internalType": "address",
          "name": "user",
          "type": "address"
        },
        {
          "indexed": false,
          "internalType": "uint256",
          "name": "amount",
          "type": "uint256"
        }
      ],
      "name": "FundsWithdrawn",
      "type": "event"
    },
    {
      "anonymous": false,
      "inputs": [
        {
          "indexed": true,
          "internalType": "address",
          "name": "operator",
          "type": "address"
        }
      ],
      "name": "OperatorAdded",
      "type": "event"
    },
    {
      "anonymous": false,
      "inputs": [
        {
          "indexed": true,
          "internalType": "address",
          "name": "operator",
          "type": "address"
        }
      ],
      "name": "OperatorRemoved",
      "type": "event"
    },
    {
      "anonymous": false,
      "inputs": [
        {
          "indexed": true,
          "internalType": "address",
          "name": "sender",
          "type": "address"
        },
        {
          "indexed": true,
          "internalType": "address",
          "name": "recipient",
          "type": "address"
        },
        {
          "indexed": false,
          "internalType": "uint256",
          "name": "amount",
          "type": "uint256"
        }
      ],
      "name": "TransactionExecuted",
      "type": "event"
    },
    {
      "inputs": [
        {
          "internalType": "address",
          "name": "operator",
          "type": "address"
        }
      ],
      "name": "addOperator",
      "outputs": [],
      "stateMutability": "nonpayable",
      "type": "function"
    },
    {
      "inputs": [],
      "name": "admin",
      "outputs": [
        {
          "internalType": "address",
          "name": "",
          "type": "address"
        }
      ],
      "stateMutability": "view",
      "type": "function"
    },
    {
      "inputs": [
        {
          "internalType": "address",
          "name": "",
          "type": "address"
        }
      ],
      "name": "balances",
      "outputs": [
        {
          "internalType": "uint256",
          "name": "",
          "type": "uint256"
        }
      ],
      "stateMutability": "view",
      "type": "function"
    },
    {
      "inputs": [
        {
          "internalType": "uint256",
          "name": "",
          "type": "uint256"
        }
      ],
      "name": "batches",
      "outputs": [
        {
          "internalType": "uint256",
          "name": "batchId",
          "type": "uint256"
        },
        {
          "internalType": "bytes32",
          "name": "transactionsRoot",
          "type": "bytes32"
        },
        {
          "internalType": "uint256",
          "name": "timestamp",
          "type": "uint256"
        },
        {
          "internalType": "bool",
          "name": "verified",
          "type": "bool"
        },
        {
          "internalType": "bool",
          "name": "finalized",
          "type": "bool"
        }
      ],
      "stateMutability": "view",
      "type": "function"
    },
    {
      "inputs": [
        {
          "internalType": "address",
          "name": "newAdmin",
          "type": "address"
        }
      ],
      "name": "changeAdmin",
      "outputs": [],
      "stateMutability": "nonpayable",
      "type": "function"
    },
    {
      "inputs": [],
      "name": "depositFunds",
      "outputs": [],
      "stateMutability": "payable",
      "type": "function"
    },
    {
      "inputs": [
        {
          "internalType": "address[]",
          "name": "_recipients",
          "type": "address[]"
        },
        {
          "internalType": "uint256[]",
          "name": "_amounts",
          "type": "uint256[]"
        }
      ],
      "name": "executeL2BatchTransaction",
      "outputs": [],
      "stateMutability": "nonpayable",
      "type": "function"
    },
    {
      "inputs": [
        {
          "internalType": "address",
          "name": "_recipient",
          "type": "address"
        },
        {
          "internalType": "uint256",
          "name": "_amount",
          "type": "uint256"
        }
      ],
      "name": "executeL2Transaction",
      "outputs": [],
      "stateMutability": "nonpayable",
      "type": "function"
    },
    {
      "inputs": [
        {
          "internalType": "uint256",
          "name": "_batchId",
          "type": "uint256"
        }
      ],
      "name": "finalizeBatch",
      "outputs": [],
      "stateMutability": "nonpayable",
      "type": "function"
    },
    {
      "inputs": [
        {
          "internalType": "address",
          "name": "",
          "type": "address"
        }
      ],
      "name": "isOperator",
      "outputs": [
        {
          "internalType": "bool",
          "name": "",
          "type": "bool"
        }
      ],
      "stateMutability": "view",
      "type": "function"
    },
    {
      "inputs": [],
      "name": "nextBatchId",
      "outputs": [
        {
          "internalType": "uint256",
          "name": "",
          "type": "uint256"
        }
      ],
      "stateMutability": "view",
      "type": "function"
    },
    {
      "inputs": [
        {
          "internalType": "address",
          "name": "operator",
          "type": "address"
        }
      ],
      "name": "removeOperator",
      "outputs": [],
      "stateMutability": "nonpayable",
      "type": "function"
    },
    {
      "inputs": [
        {
          "internalType": "uint256",
          "name": "_batchId",
          "type": "uint256"
        },
        {
          "internalType": "bytes32",
          "name": "_fraudProof",
          "type": "bytes32"
        },
        {
          "components": [
            {
              "internalType": "address",
              "name": "sender",
              "type": "address"
            },
            {
              "internalType": "address",
              "name": "recipient",
              "type": "address"
            },
            {
              "internalType": "uint256",
              "name": "amount",
              "type": "uint256"
            }
          ],
          "internalType": "struct Layer2Scaling.Transaction",
          "name": "_tx",
          "type": "tuple"
        },
        {
          "internalType": "bytes32[]",
          "name": "_merkleProof",
          "type": "bytes32[]"
        }
      ],
      "name": "reportFraud",
      "outputs": [],
      "stateMutability": "nonpayable",
      "type": "function"
    },
    {
      "inputs": [],
      "name": "slashingPenalty",
      "outputs": [
        {
          "internalType": "uint256",
          "name": "",
          "type": "uint256"
        }
      ],
      "stateMutability": "view",
      "type": "function"
    },
    {
      "inputs": [
        {
          "internalType": "bytes32[]",
          "name": "_transactionsRoots",
          "type": "bytes32[]"
        }
      ],
      "name": "submitBatch",
      "outputs": [],
      "stateMutability": "nonpayable",
      "type": "function"
    },
    {
      "inputs": [
        {
          "internalType": "uint256",
          "name": "_batchId",
          "type": "uint256"
        }
      ],
      "name": "verifyBatch",
      "outputs": [],
      "stateMutability": "nonpayable",
      "type": "function"
    },
    {
      "inputs": [
        {
          "internalType": "uint256",
          "name": "_amount",
          "type": "uint256"
        }
      ],
      "name": "withdrawFunds",
      "outputs": [],
      "stateMutability": "nonpayable",
      "type": "function"
    },
    {
      "stateMutability": "payable",
      "type": "receive"
    }
  ],
  "bytecode": "0x608060405266b1a2bc2ec5000060035534801561001b57600080fd5b5033600460006101000a81548173ffffffffffffffffffffffffffffffffffffffff021916908373ffffffffffffffffffffffffffffffffffffffff160217905550600180819055506001600560003373ffffffffffffffffffffffffffffffffffffffff1673ffffffffffffffffffffffffffffffffffffffff16815260200190815260200160002060006101000a81548160ff021916908315150217905550612dec806100cb6000396000f3fe6080604052600436106101025760003560e01c80638f28397011610095578063b32c4d8d11610064578063b32c4d8d14610374578063dfe3a3ae146103b5578063e2c41dbc146103de578063e33491a7146103e8578063f851a4401461041157610157565b80638f283970146102d05780639870d7fe146102f9578063a9f1afba14610322578063ac8a584a1461034b57610157565b80636d70f7ae116100d15780636d70f7ae146102145780637f96af65146102515780638462a7f81461027a57806389f1ea64146102a557610157565b8063075ff5281461015c578063155dd5ee1461018557806327e235e3146101ae578063602a693a146101eb57610157565b36610157573373ffffffffffffffffffffffffffffffffffffffff167f543ba50a5eec5e6178218e364b1d0f396157b3c8fa278522c2cb7fd99407d4743460405161014d9190611b3e565b60405180910390a2005b600080fd5b34801561016857600080fd5b50610183600480360381019061017e9190611e13565b61043c565b005b34801561019157600080fd5b506101ac60048036038101906101a79190611e8b565b6106e9565b005b3480156101ba57600080fd5b506101d560048036038101906101d09190611eb8565b6108be565b6040516101e29190611b3e565b60405180910390f35b3480156101f757600080fd5b50610212600480360381019061020d9190611fde565b6108d6565b005b34801561022057600080fd5b5061023b60048036038101906102369190611eb8565b610b4b565b6040516102489190612042565b60405180910390f35b34801561025d57600080fd5b50610278600480360381019061027391906120c6565b610b6b565b005b34801561028657600080fd5b5061028f610e2e565b60405161029c9190611b3e565b60405180910390f35b3480156102b157600080fd5b506102ba610e34565b6040516102c79190611b3e565b60405180910390f35b3480156102dc57600080fd5b506102f760048036038101906102f29190611eb8565b610e3a565b005b34801561030557600080fd5b50610320600480360381019061031b9190611eb8565b610fff565b005b34801561032e57600080fd5b5061034960048036038101906103449190612149565b6111ba565b005b34801561035757600080fd5b50610372600480360381019061036d9190611eb8565b611351565b005b34801561038057600080fd5b5061039b60048036038101906103969190611e8b565b61159b565b6040516103ac959493929190612198565b60405180910390f35b3480156103c157600080fd5b506103dc60048036038101906103d79190611e8b565b6115eb565b005b6103e6611769565b005b3480156103f457600080fd5b5061040f600480360381019061040a9190611e8b565b611852565b005b34801561041d57600080fd5b506104266119d2565b60405161043391906121fa565b60405180910390f35b8051825114610480576040517f08c379a000000000000000000000000000000000000000000000000000000000815260040161047790612272565b60405180910390fd5b6000805b82518110156104c8578281815181106104a05761049f612292565b5b6020026020010151826104b391906122f0565b915080806104c090612324565b915050610484565b5080600260003373ffffffffffffffffffffffffffffffffffffffff1673ffffffffffffffffffffffffffffffffffffffff16815260200190815260200160002054101561054b576040517f08c379a0000000000000000000000000000000000000000000000000000000008152600401610542906123b8565b60405180910390fd5b80600260003373ffffffffffffffffffffffffffffffffffffffff1673ffffffffffffffffffffffffffffffffffffffff168152602001908152602001600020600082825461059a91906123d8565b9250508190555060005b83518110156106e3578281815181106105c0576105bf612292565b5b6020026020010151600260008684815181106105df576105de612292565b5b602002602001015173ffffffffffffffffffffffffffffffffffffffff1673ffffffffffffffffffffffffffffffffffffffff168152602001908152602001600020600082825461063091906122f0565b9250508190555083818151811061064a57610649612292565b5b602002602001015173ffffffffffffffffffffffffffffffffffffffff163373ffffffffffffffffffffffffffffffffffffffff167f508f3afa87f72dce865a2321107666b28ac822c23a8c0555fbeb3424cf3de5638584815181106106b3576106b2612292565b5b60200260200101516040516106c89190611b3e565b60405180910390a380806106db90612324565b9150506105a4565b50505050565b6000600260003373ffffffffffffffffffffffffffffffffffffffff1673ffffffffffffffffffffffffffffffffffffffff16815260200190815260200160002054905081811015610770576040517f08c379a000000000000000000000000000000000000000000000000000000000815260040161076790612458565b60405180910390fd5b818161077c91906123d8565b600260003373ffffffffffffffffffffffffffffffffffffffff1673ffffffffffffffffffffffffffffffffffffffff1681526020019081526020016000208190555060003373ffffffffffffffffffffffffffffffffffffffff16836040516107e5906124a9565b60006040518083038185875af1925050503d8060008114610822576040519150601f19603f3d011682016040523d82523d6000602084013e610827565b606091505b505090508061086b576040517f08c379a00000000000000000000000000000000000000000000000000000000081526004016108629061250a565b60405180910390fd5b3373ffffffffffffffffffffffffffffffffffffffff167feaff4b37086828766ad3268786972c0cd24259d4c87a80f9d3963a3c3d999b0d846040516108b19190611b3e565b60405180910390a2505050565b60026020528060005260406000206000915090505481565b600560003373ffffffffffffffffffffffffffffffffffffffff1673ffffffffffffffffffffffffffffffffffffffff16815260200190815260200160002060009054906101000a900460ff168061097b5750600460009054906101000a900473ffffffffffffffffffffffffffffffffffffffff1673ffffffffffffffffffffffffffffffffffffffff163373ffffffffffffffffffffffffffffffffffffffff16145b6109ba576040517f08c379a00000000000000000000000000000000000000000000000000000000081526004016109b19061259c565b60405180910390fd5b60008151116109fe576040517f08c379a00000000000000000000000000000000000000000000000000000000081526004016109f590612608565b60405180910390fd5b60005b8151811015610b47576040518060a001604052806001548152602001838381518110610a3057610a2f612292565b5b6020026020010151815260200142815260200160001515815260200160001515815250600080600154815260200190815260200160002060008201518160000155602082015181600101556040820151816002015560608201518160030160006101000a81548160ff02191690831515021790555060808201518160030160016101000a81548160ff0219169083151502179055509050506001547f54756ef60c2314d7eba772fa6c7ccb036cf55b8e9d95da41a50ec4cf28b3c736838381518110610aff57610afe612292565b5b6020026020010151604051610b149190612628565b60405180910390a260016000815480929190610b2f90612324565b91905055508080610b3f90612324565b915050610a01565b5050565b60056020528060005260406000206000915054906101000a900460ff1681565b8360008060008381526020019081526020016000206000015403610bc4576040517f08c379a0000000000000000000000000000000000000000000000000000000008152600401610bbb9061268f565b60405180910390fd5b60008086815260200190815260200160002060030160009054906101000a900460ff1615610c27576040517f08c379a0000000000000000000000000000000000000000000000000000000008152600401610c1e90612721565b60405180910390fd5b60008086815260200190815260200160002060030160019054906101000a900460ff1615610c8a576040517f08c379a0000000000000000000000000000000000000000000000000000000008152600401610c81906127b3565b60405180910390fd5b6000610c98868686866119f8565b905080610dd057600354600260003373ffffffffffffffffffffffffffffffffffffffff1673ffffffffffffffffffffffffffffffffffffffff168152602001908152602001600020541015610d23576040517f08c379a0000000000000000000000000000000000000000000000000000000008152600401610d1a9061281f565b60405180910390fd5b600354600260003373ffffffffffffffffffffffffffffffffffffffff1673ffffffffffffffffffffffffffffffffffffffff1681526020019081526020016000206000828254610d7491906123d8565b925050819055503373ffffffffffffffffffffffffffffffffffffffff167fcb97f678197099af4070ae1877f6e23ae7f39c83f03c5f841423542e89d2303a600354604051610dc39190611b3e565b60405180910390a2610dee565b6000801b600080888152602001908152602001600020600101819055505b857fbc3c0e7347af80bfe43f887074fc7f1cbf950493435ef5d3c94362c76b2d2e1986604051610e1e9190612628565b60405180910390a2505050505050565b60015481565b60035481565b600460009054906101000a900473ffffffffffffffffffffffffffffffffffffffff1673ffffffffffffffffffffffffffffffffffffffff163373ffffffffffffffffffffffffffffffffffffffff1614610eca576040517f08c379a0000000000000000000000000000000000000000000000000000000008152600401610ec1906128b1565b60405180910390fd5b600073ffffffffffffffffffffffffffffffffffffffff168173ffffffffffffffffffffffffffffffffffffffff1603610f39576040517f08c379a0000000000000000000000000000000000000000000000000000000008152600401610f309061291d565b60405180910390fd5b6000600460009054906101000a900473ffffffffffffffffffffffffffffffffffffffff16905081600460006101000a81548173ffffffffffffffffffffffffffffffffffffffff021916908373ffffffffffffffffffffffffffffffffffffffff1602179055508173ffffffffffffffffffffffffffffffffffffffff168173ffffffffffffffffffffffffffffffffffffffff167f7e644d79422f17c01e4894b5f4f588d331ebfa28653d42ae832dc59e38c9798f60405160405180910390a35050565b600460009054906101000a900473ffffffffffffffffffffffffffffffffffffffff1673ffffffffffffffffffffffffffffffffffffffff163373ffffffffffffffffffffffffffffffffffffffff161461108f576040517f08c379a0000000000000000000000000000000000000000000000000000000008152600401611086906128b1565b60405180910390fd5b600560008273ffffffffffffffffffffffffffffffffffffffff1673ffffffffffffffffffffffffffffffffffffffff16815260200190815260200160002060009054906101000a900460ff161561111c576040517f08c379a000000000000000000000000000000000000000000000000000000000815260040161111390612989565b60405180910390fd5b6001600560008373ffffffffffffffffffffffffffffffffffffffff1673ffffffffffffffffffffffffffffffffffffffff16815260200190815260200160002060006101000a81548160ff0219169083151502179055508073ffffffffffffffffffffffffffffffffffffffff167fac6fa858e9350a46cec16539926e0fde25b7629f84b5a72bffaae4df888ae86d60405160405180910390a250565b80600260003373ffffffffffffffffffffffffffffffffffffffff1673ffffffffffffffffffffffffffffffffffffffff16815260200190815260200160002054101561123c576040517f08c379a0000000000000000000000000000000000000000000000000000000008152600401611233906123b8565b60405180910390fd5b80600260003373ffffffffffffffffffffffffffffffffffffffff1673ffffffffffffffffffffffffffffffffffffffff168152602001908152602001600020600082825461128b91906123d8565b9250508190555080600260008473ffffffffffffffffffffffffffffffffffffffff1673ffffffffffffffffffffffffffffffffffffffff16815260200190815260200160002060008282546112e191906122f0565b925050819055508173ffffffffffffffffffffffffffffffffffffffff163373ffffffffffffffffffffffffffffffffffffffff167f508f3afa87f72dce865a2321107666b28ac822c23a8c0555fbeb3424cf3de563836040516113459190611b3e565b60405180910390a35050565b600460009054906101000a900473ffffffffffffffffffffffffffffffffffffffff1673ffffffffffffffffffffffffffffffffffffffff163373ffffffffffffffffffffffffffffffffffffffff16146113e1576040517f08c379a00000000000000000000000000000000000000000000000000000000081526004016113d8906128b1565b60405180910390fd5b600460009054906101000a900473ffffffffffffffffffffffffffffffffffffffff1673ffffffffffffffffffffffffffffffffffffffff168173ffffffffffffffffffffffffffffffffffffffff1603611471576040517f08c379a0000000000000000000000000000000000000000000000000000000008152600401611468906129f5565b60405180910390fd5b600560008273ffffffffffffffffffffffffffffffffffffffff1673ffffffffffffffffffffffffffffffffffffffff16815260200190815260200160002060009054906101000a900460ff166114fd576040517f08c379a00000000000000000000000000000000000000000000000000000000081526004016114f490612a61565b60405180910390fd5b6000600560008373ffffffffffffffffffffffffffffffffffffffff1673ffffffffffffffffffffffffffffffffffffffff16815260200190815260200160002060006101000a81548160ff0219169083151502179055508073ffffffffffffffffffffffffffffffffffffffff167f80c0b871b97b595b16a7741c1b06fed0c6f6f558639f18ccbce50724325dc40d60405160405180910390a250565b60006020528060005260406000206000915090508060000154908060010154908060020154908060030160009054906101000a900460ff16908060030160019054906101000a900460ff16905085565b8060008060008381526020019081526020016000206000015403611644576040517f08c379a000000000000000000000000000000000000000000000000000000000815260040161163b9061268f565b60405180910390fd5b60008083815260200190815260200160002060030160019054906101000a900460ff16156116a7576040517f08c379a000000000000000000000000000000000000000000000000000000000815260040161169e90612acd565b60405180910390fd5b60008083815260200190815260200160002060030160009054906101000a900460ff161561170a576040517f08c379a000000000000000000000000000000000000000000000000000000000815260040161170190612b39565b60405180910390fd5b600160008084815260200190815260200160002060030160006101000a81548160ff021916908315150217905550817f1ee066b0cc077ae247f731c0ad7cb81d140e8062773445294e6b74944ad455e360405160405180910390a25050565b600034116117ac576040517f08c379a00000000000000000000000000000000000000000000000000000000081526004016117a390612bcb565b60405180910390fd5b34600260003373ffffffffffffffffffffffffffffffffffffffff1673ffffffffffffffffffffffffffffffffffffffff16815260200190815260200160002060008282546117fb91906122f0565b925050819055503373ffffffffffffffffffffffffffffffffffffffff167f543ba50a5eec5e6178218e364b1d0f396157b3c8fa278522c2cb7fd99407d474346040516118489190611b3e565b60405180910390a2565b80600080600083815260200190815260200160002060000154036118ab576040517f08c379a00000000000000000000000000000000000000000000000000000000081526004016118a29061268f565b60405180910390fd5b60008083815260200190815260200160002060030160019054906101000a900460ff161561190e576040517f08c379a000000000000000000000000000000000000000000000000000000000815260040161190590612c37565b60405180910390fd5b62093a806000808481526020019081526020016000206002015461193291906122f0565b4211611973576040517f08c379a000000000000000000000000000000000000000000000000000000000815260040161196a90612ca3565b60405180910390fd5b600160008084815260200190815260200160002060030160016101000a81548160ff021916908315150217905550817f5cff112f1cb588779b4e6aae6baf0d738747fcf132f0ff202adcec605f9cabdf60405160405180910390a25050565b600460009054906101000a900473ffffffffffffffffffffffffffffffffffffffff1681565b600080836000015184602001518560400151604051602001611a1c93929190612d2c565b6040516020818303038152906040528051906020012090506000806000888152602001908152602001600020600101549050611a59828583611a71565b8015611a655750818614155b92505050949350505050565b60008084905060005b8451811015611b17576000858281518110611a9857611a97612292565b5b60200260200101519050808310611ad7578083604051602001611abc929190612d8a565b60405160208183030381529060405280519060200120611b01565b8281604051602001611aea929190612d8a565b604051602081830303815290604052805190602001205b9250508080611b0f90612324565b915050611a7a565b508281149150509392505050565b6000819050919050565b611b3881611b25565b82525050565b6000602082019050611b536000830184611b2f565b92915050565b6000604051905090565b600080fd5b600080fd5b600080fd5b6000601f19601f8301169050919050565b7f4e487b7100000000000000000000000000000000000000000000000000000000600052604160045260246000fd5b611bbb82611b72565b810181811067ffffffffffffffff82111715611bda57611bd9611b83565b5b80604052505050565b6000611bed611b59565b9050611bf98282611bb2565b919050565b600067ffffffffffffffff821115611c1957611c18611b83565b5b602082029050602081019050919050565b600080fd5b600073ffffffffffffffffffffffffffffffffffffffff82169050919050565b6000611c5a82611c2f565b9050919050565b611c6a81611c4f565b8114611c7557600080fd5b50565b600081359050611c8781611c61565b92915050565b6000611ca0611c9b84611bfe565b611be3565b90508083825260208201905060208402830185811115611cc357611cc2611c2a565b5b835b81811015611cec5780611cd88882611c78565b845260208401935050602081019050611cc5565b5050509392505050565b600082601f830112611d0b57611d0a611b6d565b5b8135611d1b848260208601611c8d565b91505092915050565b600067ffffffffffffffff821115611d3f57611d3e611b83565b5b602082029050602081019050919050565b611d5981611b25565b8114611d6457600080fd5b50565b600081359050611d7681611d50565b92915050565b6000611d8f611d8a84611d24565b611be3565b90508083825260208201905060208402830185811115611db257611db1611c2a565b5b835b81811015611ddb5780611dc78882611d67565b845260208401935050602081019050611db4565b5050509392505050565b600082601f830112611dfa57611df9611b6d565b5b8135611e0a848260208601611d7c565b91505092915050565b60008060408385031215611e2a57611e29611b63565b5b600083013567ffffffffffffffff811115611e4857611e47611b68565b5b611e5485828601611cf6565b925050602083013567ffffffffffffffff811115611e7557611e74611b68565b5b611e8185828601611de5565b9150509250929050565b600060208284031215611ea157611ea0611b63565b5b6000611eaf84828501611d67565b91505092915050565b600060208284031215611ece57611ecd611b63565b5b6000611edc84828501611c78565b91505092915050565b600067ffffffffffffffff821115611f0057611eff611b83565b5b602082029050602081019050919050565b6000819050919050565b611f2481611f11565b8114611f2f57600080fd5b50565b600081359050611f4181611f1b565b92915050565b6000611f5a611f5584611ee5565b611be3565b90508083825260208201905060208402830185811115611f7d57611f7c611c2a565b5b835b81811015611fa65780611f928882611f32565b845260208401935050602081019050611f7f565b5050509392505050565b600082601f830112611fc557611fc4611b6d565b5b8135611fd5848260208601611f47565b91505092915050565b600060208284031215611ff457611ff3611b63565b5b600082013567ffffffffffffffff81111561201257612011611b68565b5b61201e84828501611fb0565b91505092915050565b60008115159050919050565b61203c81612027565b82525050565b60006020820190506120576000830184612033565b92915050565b600080fd5b6000606082840312156120785761207761205d565b5b6120826060611be3565b9050600061209284828501611c78565b60008301525060206120a684828501611c78565b60208301525060406120ba84828501611d67565b60408301525092915050565b60008060008060c085870312156120e0576120df611b63565b5b60006120ee87828801611d67565b94505060206120ff87828801611f32565b935050604061211087828801612062565b92505060a085013567ffffffffffffffff81111561213157612130611b68565b5b61213d87828801611fb0565b91505092959194509250565b600080604083850312156121605761215f611b63565b5b600061216e85828601611c78565b925050602061217f85828601611d67565b9150509250929050565b61219281611f11565b82525050565b600060a0820190506121ad6000830188611b2f565b6121ba6020830187612189565b6121c76040830186611b2f565b6121d46060830185612033565b6121e16080830184612033565b9695505050505050565b6121f481611c4f565b82525050565b600060208201905061220f60008301846121eb565b92915050565b600082825260208201905092915050565b7f4d69736d61746368656420617272617973000000000000000000000000000000600082015250565b600061225c601183612215565b915061226782612226565b602082019050919050565b6000602082019050818103600083015261228b8161224f565b9050919050565b7f4e487b7100000000000000000000000000000000000000000000000000000000600052603260045260246000fd5b7f4e487b7100000000000000000000000000000000000000000000000000000000600052601160045260246000fd5b60006122fb82611b25565b915061230683611b25565b925082820190508082111561231e5761231d6122c1565b5b92915050565b600061232f82611b25565b91507fffffffffffffffffffffffffffffffffffffffffffffffffffffffffffffffff8203612361576123606122c1565b5b600182019050919050565b7f496e73756666696369656e74204c6179657220322062616c616e636500000000600082015250565b60006123a2601c83612215565b91506123ad8261236c565b602082019050919050565b600060208201905081810360008301526123d181612395565b9050919050565b60006123e382611b25565b91506123ee83611b25565b9250828203905081811115612406576124056122c1565b5b92915050565b7f496e73756666696369656e742062616c616e6365000000000000000000000000600082015250565b6000612442601483612215565b915061244d8261240c565b602082019050919050565b6000602082019050818103600083015261247181612435565b9050919050565b600081905092915050565b50565b6000612493600083612478565b915061249e82612483565b600082019050919050565b60006124b482612486565b9150819050919050565b7f5472616e73666572206661696c65640000000000000000000000000000000000600082015250565b60006124f4600f83612215565b91506124ff826124be565b602082019050919050565b60006020820190508181036000830152612523816124e7565b9050919050565b7f4f6e6c79206f70657261746f72732063616e2063616c6c20746869732066756e60008201527f6374696f6e000000000000000000000000000000000000000000000000000000602082015250565b6000612586602583612215565b91506125918261252a565b604082019050919050565b600060208201905081810360008301526125b581612579565b9050919050565b7f4261746368206d75737420636f6e7461696e207472616e73616374696f6e7300600082015250565b60006125f2601f83612215565b91506125fd826125bc565b602082019050919050565b60006020820190508181036000830152612621816125e5565b9050919050565b600060208201905061263d6000830184612189565b92915050565b7f426174636820646f6573206e6f74206578697374000000000000000000000000600082015250565b6000612679601483612215565b915061268482612643565b602082019050919050565b600060208201905081810360008301526126a88161266c565b9050919050565b7f43616e6e6f74207265706f7274206672617564206f6e2061207665726966696560008201527f6420626174636800000000000000000000000000000000000000000000000000602082015250565b600061270b602783612215565b9150612716826126af565b604082019050919050565b6000602082019050818103600083015261273a816126fe565b9050919050565b7f43616e6e6f74207265706f7274206672617564206f6e20612066696e616c697a60008201527f6564206261746368000000000000000000000000000000000000000000000000602082015250565b600061279d602883612215565b91506127a882612741565b604082019050919050565b600060208201905081810360008301526127cc81612790565b9050919050565b7f496e73756666696369656e742062616c616e636520666f722070656e616c7479600082015250565b6000612809602083612215565b9150612814826127d3565b602082019050919050565b60006020820190508181036000830152612838816127fc565b9050919050565b7f4f6e6c792061646d696e2063616e2063616c6c20746869732066756e6374696f60008201527f6e00000000000000000000000000000000000000000000000000000000000000602082015250565b600061289b602183612215565b91506128a68261283f565b604082019050919050565b600060208201905081810360008301526128ca8161288e565b9050919050565b7f4e65772061646d696e2063616e6e6f74206265207a65726f2061646472657373600082015250565b6000612907602083612215565b9150612912826128d1565b602082019050919050565b60006020820190508181036000830152612936816128fa565b9050919050565b7f416c726561647920616e206f70657261746f7200000000000000000000000000600082015250565b6000612973601383612215565b915061297e8261293d565b602082019050919050565b600060208201905081810360008301526129a281612966565b9050919050565b7f43616e6e6f742072656d6f76652061646d696e206173206f70657261746f7200600082015250565b60006129df601f83612215565b91506129ea826129a9565b602082019050919050565b60006020820190508181036000830152612a0e816129d2565b9050919050565b7f4e6f7420616e206f70657261746f720000000000000000000000000000000000600082015250565b6000612a4b600f83612215565b9150612a5682612a15565b602082019050919050565b60006020820190508181036000830152612a7a81612a3e565b9050919050565b7f42617463682069732066696e616c697a65640000000000000000000000000000600082015250565b6000612ab7601283612215565b9150612ac282612a81565b602082019050919050565b60006020820190508181036000830152612ae681612aaa565b9050919050565b7f426174636820616c726561647920766572696669656400000000000000000000600082015250565b6000612b23601683612215565b9150612b2e82612aed565b602082019050919050565b60006020820190508181036000830152612b5281612b16565b9050919050565b7f4465706f736974206d7573742062652067726561746572207468616e207a657260008201527f6f00000000000000000000000000000000000000000000000000000000000000602082015250565b6000612bb5602183612215565b9150612bc082612b59565b604082019050919050565b60006020820190508181036000830152612be481612ba8565b9050919050565b7f426174636820616c72656164792066696e616c697a6564000000000000000000600082015250565b6000612c21601783612215565b9150612c2c82612beb565b602082019050919050565b60006020820190508181036000830152612c5081612c14565b9050919050565b7f4368616c6c656e676520706572696f64206e6f74206f76657200000000000000600082015250565b6000612c8d601983612215565b9150612c9882612c57565b602082019050919050565b60006020820190508181036000830152612cbc81612c80565b9050919050565b60008160601b9050919050565b6000612cdb82612cc3565b9050919050565b6000612ced82612cd0565b9050919050565b612d05612d0082611c4f565b612ce2565b82525050565b6000819050919050565b612d26612d2182611b25565b612d0b565b82525050565b6000612d388286612cf4565b601482019150612d488285612cf4565b601482019150612d588284612d15565b602082019150819050949350505050565b6000819050919050565b612d84612d7f82611f11565b612d69565b82525050565b6000612d968285612d73565b602082019150612da68284612d73565b602082019150819050939250505056fea2646970667358221220e354874b9563b7db17a5521a6965527737da2c8c2833f3923d7fd1f0849e975164736f6c63430008140033",
  "linkReferences": {},
  "deployedLinkReferences": {}
}