{
  "_format": "hh-sol-artifact-1",
  "contractName": "Rollup",
  "sourceName": "contracts/Rollup.sol",
  "abi": [
    {
      "inputs": [
        {
          "internalType": "uint256",
          "name": "",
          "type": "uint256"
        }
      ],
      "name": "batchMerkleRoots",
      "outputs": [
        {
          "internalType": "bytes32",
          "name": "",
          "type": "bytes32"
        }
      ],
      "stateMutability": "view",
      "type": "function"
    },
    {
      "inputs": [
        {
          "internalType": "uint256",
          "name": "",
          "type": "uint256"
        }
      ],
      "name": "isBatchFraudulent",
      "outputs": [
        {
          "internalType": "bool",
          "name": "",
          "type": "bool"
        }
      ],
      "stateMutability": "view",
      "type": "function"
    },
    {
      "inputs": [
        {
          "internalType": "uint256",
          "name": "batchId",
          "type": "uint256"
        },
        {
          "internalType": "bytes32",
          "name": "fraudProofHash",
          "type": "bytes32"
        },
        {
          "internalType": "bytes32[]",
          "name": "merkleProof",
          "type": "bytes32[]"
        }
      ],
      "name": "reportFraud",
      "outputs": [],
      "stateMutability": "nonpayable",
      "type": "function"
    }
  ],
  "bytecode": "0x608060405234801561001057600080fd5b506106f9806100206000396000f3fe608060405234801561001057600080fd5b50600436106100415760003560e01c806310334c4614610046578063150a527e146100765780636ed180d1146100a6575b600080fd5b610060600480360381019061005b9190610325565b6100c2565b60405161006d919061036d565b60405180910390f35b610090600480360381019061008b9190610325565b6100e2565b60405161009d91906103a1565b60405180910390f35b6100c060048036038101906100bb919061044d565b6100fa565b005b60016020528060005260406000206000915054906101000a900460ff1681565b60006020528060005260406000206000915090505481565b6001600085815260200190815260200160002060009054906101000a900460ff161561015b576040517f08c379a000000000000000000000000000000000000000000000000000000000815260040161015290610544565b60405180910390fd5b60008060008681526020019081526020016000205490506101be84848480806020026020016040519081016040528093929190818152602001838360200280828437600081840152601f19601f820116905080830192505050505050508361022f565b6101fd576040517f08c379a00000000000000000000000000000000000000000000000000000000081526004016101f4906105b0565b60405180910390fd5b600180600087815260200190815260200160002060006101000a81548160ff0219169083151502179055505050505050565b60008084905060005b84518110156102d7576000858281518110610256576102556105d0565b5b6020026020010151905080831161029757828160405160200161027a929190610620565b6040516020818303038152906040528051906020012092506102c3565b80836040516020016102aa929190610620565b6040516020818303038152906040528051906020012092505b5080806102cf9061067b565b915050610238565b508281149150509392505050565b600080fd5b600080fd5b6000819050919050565b610302816102ef565b811461030d57600080fd5b50565b60008135905061031f816102f9565b92915050565b60006020828403121561033b5761033a6102e5565b5b600061034984828501610310565b91505092915050565b60008115159050919050565b61036781610352565b82525050565b6000602082019050610382600083018461035e565b92915050565b6000819050919050565b61039b81610388565b82525050565b60006020820190506103b66000830184610392565b92915050565b6103c581610388565b81146103d057600080fd5b50565b6000813590506103e2816103bc565b92915050565b600080fd5b600080fd5b600080fd5b60008083601f84011261040d5761040c6103e8565b5b8235905067ffffffffffffffff81111561042a576104296103ed565b5b602083019150836020820283011115610446576104456103f2565b5b9250929050565b60008060008060608587031215610467576104666102e5565b5b600061047587828801610310565b9450506020610486878288016103d3565b935050604085013567ffffffffffffffff8111156104a7576104a66102ea565b5b6104b3878288016103f7565b925092505092959194509250565b600082825260208201905092915050565b7f426174636820616c7265616479206d61726b6564206173206672617564756c6560008201527f6e74000000000000000000000000000000000000000000000000000000000000602082015250565b600061052e6022836104c1565b9150610539826104d2565b604082019050919050565b6000602082019050818103600083015261055d81610521565b9050919050565b7f496e76616c69642066726175642070726f6f6600000000000000000000000000600082015250565b600061059a6013836104c1565b91506105a582610564565b602082019050919050565b600060208201905081810360008301526105c98161058d565b9050919050565b7f4e487b7100000000000000000000000000000000000000000000000000000000600052603260045260246000fd5b6000819050919050565b61061a61061582610388565b6105ff565b82525050565b600061062c8285610609565b60208201915061063c8284610609565b6020820191508190509392505050565b7f4e487b7100000000000000000000000000000000000000000000000000000000600052601160045260246000fd5b6000610686826102ef565b91507fffffffffffffffffffffffffffffffffffffffffffffffffffffffffffffffff82036106b8576106b761064c565b5b60018201905091905056fea26469706673582212203d196afe81df6e81e7f60018580c6b5bc8d9234055a8b578f8ad6a2dfdccdbe164736f6c63430008140033",
  "linkReferences": {},
  "deployedLinkReferences": {}
}